S024000048414C5F55534152545F494E544552464143455F43414C4C4241434B2E73726563C1
S113000090200020150100001101000011010000E2
S113001000000000000000000000000000000000DC
S113002000000000000000000000000011010000BA
S11300300000000000000000110100001101000098
S11300401101000011010000110100001101000064
S11300501101000011010000110100003909000024
S11300601101000011010000110100001101000044
S11300701101000011010000110100001101000034
S11300801101000011010000110100001101000024
S11300901101000011010000110100001101000014
S11300A01101000010B5064C2378002B07D1054B35
S11300B0002B02D0044800E000BF0123237010BDD0
S11300C00C00002000000000A40B0000084B10B539
S11300D0002B03D00749084800E000BF0748036825
S11300E0002B00D110BD064B002BFBD09847F9E73D
S11300F00000000010000020A40B0000A40B00006E
S11301000000000010B5014B984710BD45020000E7
S1130110FEE7000010B51A4A1A4B9A4211D01A0091
S1130120194B9A420DD2194A03339B1A9B08013387
S11301309B000022134812498C58845004329A427E
S1130140FAD1134A134B9A420AD2D34311495B188A
S113015003218B4304339B18002102C29342FCD138
S11301600D4AFF210D4B8B4393600D4A53687F3931
S11301700B4353600B4B98470B4B9847FEE7C04625
S1130180A40B0000000000200C000020040000204C
S11301900C0000209000002000ED00E000000000B2
S11301A000400041C90A00001D0A0000044A136A05
S11301B004210B431362034A034B5A807047C04621
S11301C0000400400D400000000C004030B50E4B10
S11301D04622995C0125A94301242143C9B29954BB
S11301E03320195C373A91430C3A1143195447218F
S11301F05A5CAA432243D2B25A541A5C38390A4090
S113020021310A431A5430BD0044004110B582B074
S1130210064B9847002300931033054A05490648C6
S1130220064CA047064B984702B010BDAD01000034
S1130230280000200008004240000020CD040000F7
S1130240CD01000010B50B4B9847C023DB0580227D
S1130250D2019A619A60084B084A9A62C022120637
S11302609A624E215A5C012082435A54044B9847A7
S113027010BDC0463D07000000440041004000405E
S11302800D020000EFF31083036072B6BFF35F8FBB
S11302907047BFF35F8F036883F3108870470000D3
S11302A070B506000C00150000280DD00800431E90
S11302B09841C0B234220549054B984733682A0057
S11302C021003000984770BD0020F3E7100B0000B8
S11302D03506000070B506000C00150000280DD08E
S11302E00800431E9841C0B23D220549054B98477A
S11302F073682A0021003000984770BD0020F3E79E
S1130300100B00003506000010B508380023036305
S1130310436A002B00D0984710BD10B5083800235D
S11303200363C36A002B00D0984710BD10B50400C6
S11303302C30044B9847236A083C002B01D0200042
S1130340984710BDD906000070B504000E001500D2
S113035000281DD000291DD01000431E98413C22C6
S1130360FF320F490F4B98474423E25A0833E35AAC
S11303709A4211D1A6644C23E5520022083BE25272
S1130380433B236320000830074B9847280070BD87
S11303900020E4E70020E2E71C204042F7E7C046E3
S11303A0240B000035060000CB08000070B50400E3
S11303B001000839838F4C228A5A9A420CD00A00D1
S11303C0896C5D1C44201552C95C2000044B98477D
S11303D02000044B984770BD034B9847FBE7C04689
S11303E0C3080000CB080000D3080000F0B5CE46D7
S11303F0474680B585B005000E001700002815D0CB
S1130400002913D0002A2AD1AC2252002949002005
S1130410294B984703A8294B984728003430284B88
S1130420984703A8274B984700253CE0AC2252008C
S113043020490020204B984703A8204B9847343587
S1130440280001951E4B9847804603A81D4B9847EA
S113045000254346002B26D0002F16D123E0AC22E2
S1130460520014490120144B984703A8134B984792
S1130470343528000195124B9847804603A8114B48
S1130480984743460025002B0DD000240E4B994677
S1130490651CADB231190198C8470134444502D2F4
S11304A0A3B29F42F4D8280005B00CBC90469946EC
S11304B0F0BDC046240B0000350600008502000094
S11304C0190700009302000091060000F8B504002B
S11304D00D0016001F00002826D0002926D0002A6F
S11304E026D01800431E98413A221449144B9847C9
S11304F0200034303A003100124B9847002819D1BB
S1130500200008302900104B984700280BD10F4BCE
S113051063600F4B23600F4BA3600F4BE3600F4BE3
S113052023610F4B6361F8BD0020DDE70020DBE7AA
S11305300020D9E70D204042F5E7C046240B000017
S1130540350600003D06000035080000ED030000FC
S113055049030000AD0300002D030000090300005F
S11305601B03000010B50400431E9841C0B2612271
S11305700449054B984720000830044B9847002055
S113058010BDC046240B000035060000B108000071
S113059070B504000D0000280AD00800431E9841DD
S11305A0C0B277220349044B98472C60002070BDE9
S11305B00020F6E7240B00003506000070B50500A6
S11305C00E001400431E9841C0B283221649174BF3
S11305D09847012E11D0002E04D0022E18D00D20E1
S11305E0404209E0AC62621E9441E2B22800083045
S11305F001210F4B9847002070BD6C62621E94412C
S1130600E2B2280008300221094B98470020F3E7A2
S1130610EC62621E9441E2B2280008300321044BCC
S113062098470020E8E7C046240B00003506000088
S1130630DD080000002800D100BE704770B504003A
S11306400E00150000280BD0002918D00120002A24
S113065007D128220C4900200C4B98476B1E07E059
S1130660002028220849094B98476B1E2B4208D1C9
S113067063600023A360E3602660002070BD002057
S1130680EFE70D204042F9E7440B00003506000077
S113069070B504000D00002815D00800431E9841D1
S11306A0C0B240220A490B4B9847A368E2689A42B9
S11306B00BD0626813402268D35C2B70A3680133AB
S11306C0A360002070BD0020EBE70A204042F9E758
S11306D0440B00003506000070B504000D00431EF5
S11306E09841C0B251220A490A4B98476368E268AC
S11306F013402268D554E3686168A2689A1A8A4252
S113070001D9591AA1600133E360002070BDC046CD
S1130710440B00003506000010B50400431E984148
S1130720C0B267220349044B9847E068A368C01A23
S113073010BDC046440B00003506000010B5064B42
S11307405A685A60054B9847054B9847054B98479C
S1130750FF20054B984710BD004000418D07000065
S113076091090000D90900006D070000C3070AD5EC
S1130770054B802252009A60832252025A601A006A
S11307805378DB09FCD17047000C0040064B1A7A01
S1130790D2B21A725A7AD2B25A729A7AD2B29A727D
S11307A0DA7AD2B2DA7270470004004010B504005D
S11307B01A4BC3189B0ADBB2002B04D0184A194900
S11307C00020194B9847238ADB0BFCD1238ADB0BCF
S11307D0FCD123689B0707D500232360238ADB0B06
S11307E0FCD1238ADB0BFCD101232360238ADB0B9E
S11307F0FCD1238ADB0BFCD10C4B2360238ADB0B5B
S1130800FCD1C0239B026360238ADB0BFCD1084B21
S1130810638100232372002010BDC04600F8FFBD91
S11308204E020000680B0000350600000400314051
S1130830ADD8FFFF70B505000C00431E9841C0B24F
S1130840B1221449144B98472000144B98470028B0
S113085000D070BDAC61124B9C4217D0114B9C462A
S11308606444A40A0734E3B22206F2D41F221A40D5
S1130870012393400C4A80215350BFF34F8FBFF3A1
S11308806F8F0131FF3153501360E2E7074B1D6056
S11308900723EBE7680B000035060000AD070000F6
S11308A00008004200F8FFBD00E100E0380000202D
S11308B08269136802210B431360138ADB0BFCD19A
S11308C07047836989B219837047836901225A7317
S11308D07047836902225A737047000070B50400A0
S11308E00D001600431E9841C0B2842292001049A4
S11308F0104B984702232A009A430ED1A369002E75
S113090005D101221A73A36901321A7370BD012241
S11309105A73A36901325A73F8E7012DF6D1A3691A
S1130920002E02D004225A73F0E704221A73EDE772
S1130930680B00003506000010B5134B1868836976
S11309409A7BD20702D55A7BD2070ED49A7B9207A0
S113095002D55A7B92070DD49A7B520704D51A8A82
S113096052070CD0094A1A8210BD01221A73036877
S11309709847F9E702221A7383689847F4E7198BBA
S1130980C9B243689847EFE7380000200780FFFFAB
S11309900E4B1A6A196A0E480240890F89070D48DE
S11309A001430A431A629A6902210A439A611A7F2F
S11309B01D310A401A7719000822CB681A42FCD06C
S11309C0024A136A80210B431362704700080040F7
S11309D00000FF0F02030000024A936902218B43C7
S11309E093617047000800408022D201C023DB05D8
S11309F0DA6170470122014B1A6070473C00002005
S1130A0010B50C2202490348034B984710BDC04659
S1130A100000002040000020A1020000F0B5C646FE
S1130A2000B582B01C4B98471C4C1D4A0121200084
S1130A301C4DA8471C4A00212000A8471B4A02213C
S1130A402000A84769462000194B98472000194BFD
S1130A5098470C2218490098184B9847184B984609
S1130A600E4D11E0154C01226B46D91D2800A047FC
S1130A700128F8D101226B46D91D3000B84701285E
S1130A80F0D000220E4B1A6043461B68002BFBD0AB
S1130A90024E0C4FEEE7C046050100004000002066
S1130AA0E9090000BD050000F5090000010A000085
S1130AB0910500006505000000000020A10200006F
S1130AC03C000020D502000070B500260C4D0D4CF2
S1130AD0641BA410A64209D1002600F053F80A4D65
S1130AE00A4C641BA410A64205D170BDB300EB5898
S1130AF098470136EEE7B300EB5898470136F2E722
S1130B00900B0000900B0000900B0000940B000071
S1130B102E2E2F68616C2F7372632F68616C5F696E
S1130B206F2E63002E2E2F68616C2F7372632F68F3
S1130B30616C5F75736172745F6173796E632E6348
S1130B40000000002E2E2F68616C2F7574696C7381
S1130B502F7372632F7574696C735F72696E676249
S1130B6075666665722E63002E2E2F68706C2F7367
S1130B706572636F6D2F68706C5F736572636F6D00
S1130B802E630000F8B5C046F8BC08BC9E4670470A
S1130B90CD000000F8B5C046F8BC08BC9E467047BE
S1070BA0A5000000A8
S10F0BA448656C6C6F20576F726C642104
S9030000FC
