S01E000055534152545F494E544552464143455F504F4C4C45442E7372656368
S113000048200020050E0000010E0000010E000033
S113001000000000000000000000000000000000DC
S1130020000000000000000000000000010E0000BD
S11300300000000000000000010E0000010E00009E
S1130040010E0000010E0000010E0000010E000070
S1130050010E0000010E0000010E0000010E000060
S1130060010E0000010E0000010E0000010E000050
S1130070010E0000010E0000010E0000010E000040
S1130080010E0000010E0000010E0000010E000030
S1130090010E0000010E0000010E0000010E000020
S11300A0010E000010B5064C2378002B07D1054B38
S11300B0002B02D0044800E000BF0123237010BDD0
S11300C00400002000000000BC110000084B10B523
S11300D0002B03D00749084800E000BF0748036825
S11300E0002B00D110BD064B002BFBD09847F9E73D
S11300F00000000008000020BC110000BC1100003A
S1130100000000000C4B1B68002B06D1EFF310839A
S1130110002B07D00022094B1A70074A13680133D9
S11301201360704772B6BFF35F8F0022044B1A70DE
S11301300132024B1A70F0E7200000202400002056
S113014000000020084B1A68013A1A601B68002B53
S113015009D1064B1B78002B05D00122044B1A70E1
S1130160BFF35F8F62B67047200000202400002098
S113017000000020F0B583B001AC012565700027B4
S1130180A770257021000E20064EB0478022D201B0
S1130190054B9A612770657021000F20B04703B0AA
S11301A0F0BDC046AD0100000044004100B583B07D
S11301B001AB80221A700A785A704A789A708A7849
S11301C0DA701900014B984703B000BDA10D00007F
S11301D0F0B5DE4657464E464546E0B587B0804604
S11301E0049116001F000022002300218B463F24A7
S11301F001202100009601975C460394444605942F
S113020013E02024641A0500E540A84614E0009C8D
S1130210019D121BAB415C464D462C43A346039CF7
S113022045462C430394013925D3202464420C19F8
S1130230E7D40500A540A84604008C40A1469218C6
S11302405B4114001D00059E4F463E40B446049E8B
S113025047463E40B246664657463E4303D00600F4
S1130260264332002B00009C019D9D42DBD8CED159
S11302709442D8D8CBE7039B5846190007B03CBC3E
S113028090469946A246AB46F0BD10B549084023B6
S11302900024814202D2180010BD1C00091A631CFC
S11302A09BB28842F9D94023FF2CF4D81480002350
S11302B0F1E70000F0B583B00F00160008AA11782A
S11302C004004C434022BC4202D9100003B0F0BDEC
S11302D0002B14D1020008000021194CA047010092
S11302E03A0000230020174CA04700220123121AD1
S11302F08B41120C1B041A4332800022E5E70022D2
S1130300012BF9D10A00002300210D4CA047020063
S11303100B0000920193380000210A4CA04705000D
S113032080239B0140229842CFD8790FF800009A8D
S1130330019BA047EA00821AD2B252032A43DBE7A8
S113034099100000D101000010B582B004000E4BDA
S11303501B78002B07D0002905D10B4B5B78834217
S113036010D01D200CE001A90C700C20074B9847FD
S11303700C20074B9847044B5C7001221A70002034
S113038002B010BD0020FBE728000020A90C0000EB
S11303901D0C0000404B984231D00AD93F4B984283
S11303A04DD03F4B98425AD03E4B984237D0002014
S11303B070473D4B98420CD03C4B9842F7D10129F1
S11303C017D000295DD0022915D0032915D00020AB
S11303D0EEE7012907D0002951D0022905D00329CD
S11303E005D00020E4E73248E2E73248E0E732484B
S11303F0DEE73248DCE73248DAE73248D8E7012959
S113040007D000293FD0022905D0032905D00020B8
S1130410CEE72D48CCE72D48CAE72D48C8E7012987
S113042007D0002931D0022905D0032905D00020A6
S1130430BEE72848BCE72848BAE72848B8E70129B6
S113044007D0002923D0022905D0032905D0002094
S1130450AEE72348ACE72348AAE72348A8E70129E5
S113046007D0002915D0022905D0032905D0002082
S11304709EE71E489CE71E489AE71E4898E71E48D8
S113048096E7032094E71D4892E71D4890E71D482E
S11304908EE71D488CE7C046001000420018004259
S11304A0001C00420014004200080042000C0042FC
S11304B00300050003000600030007000300010019
S11304C003001E0003001F000300090003000A00CC
S11304D003000B00030011000300120003001300CB
S11304E003000D0003000E0003000F0003001700BB
S11304F003001800030019000300040003000800AF
S11305000300100003000C000300160030B587B090
S11305100B4B6A4632CB32C232CB32C2009B83428F
S11305200BD001239A0069465258824206D0013307
S1130530062BF7D1002007B030BD0023D8B2FAE76C
S113054034110000F0B5DE4657464E464546E0B548
S11305508DB005000C00160029600800704B984708
S1130560020023680520DB0706D50DB03CBC90468D
S11305709946A246AB46F0BD236817309B07F4D4D6
S11305806849086A971C0123BB4003430B620BA90B
S1130590737F0B700D32D7B23800634B9847380025
S11305A0624B9847707F0021614B9847F37A6B71D7
S11305B0337DAB71737DEB712B6898461800584BF3
S11305C098470D3000220E2302A98C4663441A80FA
S11305D033680393F3689A46B37D9B4673689946E0
S11305E0002B14D080235B05994530D1F37D002B7B
S11305F031D133691F00C0B24E4B984701000E221F
S113060002AB9C46624438004B4B984720E0F37D94
S1130610002B0BD01023009300230E2202A98C463A
S11306206244B1693069454FB84711E033691F002E
S1130630C0B2404B984701001023009300230E22C0
S113064002A88446624438003C4FB84700E00020CA
S1130650002800D089E70E2302AA944663441B882D
S1130660424653815346039F1F434B461F435B46F9
S11306705B071F43F37D002B01D104331F43317DFE
S11306804904737D1B040B43B17AF27A1143194375
S11306903389FF2B03D08022520417431943337F3D
S11306A0002B03D1264B9B789B0701D580231F4346
S11306B02A68138A1BB2002BFBDB434659602A6865
S11306C0138A1BB2002BFBDB43461F600AAB80225C
S11306D01A7000225A70DA709A70336A0693736A39
S11306E00793B36A0893F36A03930993002706AD4B
S11306F0144E06E02000144B984707E00137042FFE
S11307000CD0F9B2BB0058590028F3D0431CF5D0E3
S11307100AA90870000CC0B2B047EFE7002024E734
S11307200D05000000040040A90C00001D0C000091
S113073049030000C50C00008B020000B502000054
S113074000200041A10D000095030000C2791C2384
S1130750002A01D1180070470268907B173BC0073C
S1130760F8D511830221937B0B42FCD00023F1E7DF
S113077082791C23002A01D1180070470268907BFB
S1130780173B4007F8D5138ADBB2580711D09807F6
S113079003D5022313821833EEE7580703D5042345
S11307A013821A33E8E7DB0703D5012313821233DC
S11307B0E2E7138B0B800023DEE70000F0B5CE46A2
S11307C0474680B583B0050001911720002A04D163
S11307D003B00CBC90469946F0BDEB790530002B74
S11307E0F6D02C68013A93B2994600260127204B93
S11307F0984611E0731C9BB2019A915D6A79012AB3
S113080017D089B21E0028001A4B98474B46013B6B
S11308109BB29946434513D0A37B3B42EAD1144B88
S1130820A27B3A42E6D1012B19D0013B002BF7D130
S1130830E0E70236B6B2019AD35C1B021943E2E741
S1130840A37B9B070DD40A4B0221A27B0A420AD147
S1130850012B0AD0013B002BF7D10020B8E712206E
S1130860B6E70020B4E70020B2E71220B0E7C046A4
S1130870FFFF00004D07000010B5072803D88000D3
S1130880164B1B589F46002027E0154BD86824E0E0
S1130890144B1B6A9B059B0F1348D8401DE0104B5B
S11308A018691AE00E4B1B6800209B0715D50D49EB
S11308B01022CB681A42FCD0094B1B685B0701D499
S11308C00A480AE000200A4B9847054B9B681B0422
S11308D01B0C584301E08020000210BD4C110000A5
S11308E02C0000200008004000127A00006CDC029A
S11308F0C50C000070B50C490B6A04788578407803
S11309000122104080014026B34303432A40D20110
S113091080208343134303222240120203480340EE
S113092013430B6270BDC04600080040FFFCFFFF8C
S1130930072803D880001E4B1B589F46172036E01B
S11309401C4A136A02210B43136200202FE0194A48
S1130950936902210B439361002028E0154A138A0E
S113096002210B431382002021E0124A938A0221C0
S11309700B43938200201AE00F4B1A6802210A43AA
S11309801A601B680D4A13400A4A9384110010220E
S1130990CB681A42FCD0084A9168064BD962516868
S11309A09962126892B29A84002000E00020704795
S11309B06C110000000800402C0000207FFF0000A4
S11309C0F0B585B0C222D200204B9A60204A536809
S11309D01E218B43536002236A46137000241D4D6D
S11309E0E0B26946A84701341C2CF9D103A80024BD
S11309F04470012585700470174B98470620174BE7
S1130A009847174B984701956B465C701C725C7253
S1130A1004236A46137069460120124FB847012027
S1130A20114EB047114B1C725C729C72DC720195C2
S1130A306B465C7006236A461370147254726946DE
S1130A400020B8470020B04705B0F0BD00080040C2
S1130A5000400041A90C0000F50800003109000025
S1130A60710A0000950A00004D0B000000040040CC
S1130A70064A936908210B4393610122044B1A70BF
S1130A8019000B781342FCD17047C04600040040A3
S1130A90000C004070B5060004000D782D020543DB
S1130AA04B78002B02D08023DB021D434B7A002BB2
S1130AB002D080231B031D434868012810D9431E1C
S1130AC0184234D1022830D90223002201325B00BB
S1130AD09842FBD812023243140080235B031D4367
S1130AE00B7A002B02D080239B031D43134A5378B7
S1130AF05BB2002BFBDB124B9847124B1E700F4A64
S1130B0053785BB2002BFBDB0C4B9C601A005378D0
S1130B105BB2002BFBDB094A5368802149020B407E
S1130B201D435560084B984770BD0022D2E704026C
S1130B30344380239B021D43D2E7C046000C00408F
S1130B4005010000080C00404501000010B5040038
S1130B500B4A53785BB2002BFBDB0A4B98470A4BDA
S1130B601C70074A53785BB2002BFBDB044A5168C4
S1130B7080235B020B435360044B984710BDC0466F
S1130B80000C004005010000040C00404501000079
S1130B9070B504001A4A53785BB2002BFBDB194B87
S1130BA09847194B1C70164A53785BB2002BFBDB39
S1130BB0134E7068C004C00E144B98470500124BC6
S1130BC01C707668F602F60F114B1C700C4A5378B1
S1130BD05BB2002BFBDB0A4B9C682402240C0D4BFC
S1130BE09847002E07D1012C07D9210028000A4B71
S1130BF09847050001E00134E540280070BDC04677
S1130C00000C004005010000040C004079080000BD
S1130C10080C004045010000810F000010B50400DD
S1130C20064B9847064B1C70064A53888021C9011D
S1130C300B435380044B984710BDC0460501000088
S1130C40020C0040000C00404501000010B50400F7
S1130C500F4B98470F4B1C700F4A53881B05180FF6
S1130C6053880E490B40538053880D490B405380E1
S1130C7011008022D2014B881342FCD106494A88D4
S1130C8003020648024013434B80064B984710BDAD
S1130C9005010000020C0040000C0040FFF0FFFFC3
S1130CA0FFBFFFFF4501000010B50C782402044388
S1130CB0024B9847A4B2024B5C8010BD4D0C00005F
S1130CC0000C004010B50400064B9847064B1C70FE
S1130CD0064B5C882405240F054B98472000054BE0
S1130CE0984710BD05010000020C0040000C0040B4
S1130CF045010000910B000030B5D378002B35D1AD
S1130D001378802B29D01B06802464022343547853
S1130D100225AC4306D19478002C20D18024A4026F
S1130D20234341605478013C012C1CD90D042D0C43
S1130D30A024E4052C431C4384620D0CD024240617
S1130D402C431C438462D478002C22D15B031CD531
S1130D509378012B1ED0416117E00023D7E7C0240C
S1130D60E4022343DDE70D4C2340DFE741600C043C
S1130D70240CA023DB05234383620C0CD0231B0625
S1130D8023438362D378002B03D15378013B012B97
S1130D9002D930BD8161F8E78160FAE7FFFFFBFF0C
S1130DA010B50A00C1090023002904D14309DB015D
S1130DB005498C4663441F242040012181401800CA
S1130DC0024B984710BDC04600440041F90C000096
S1130DD07047000010B5054B9847054B9847054BE5
S1130DE09847054B9847054B984710BDC10900002B
S1130DF075010000D10D0000D10D0000D10D0000DF
S1130E00FEE7000010B51A4A1A4B9A4211D01A0094
S1130E10194B9A420DD2194A03339B1A9B0801338A
S1130E209B000022134812498C58845004329A4281
S1130E30FAD1134A134B9A420AD2D34311495B188D
S1130E4003218B4304339B18002102C29342FCD13B
S1130E500D4AFF210D4B8B4393600D4A53687F3934
S1130E600B4353600B4B98470B4B9847FEE7C04628
S1130E70BC11000000000020040000200400002039
S1130E80040000204800002000ED00E00000000005
S1130E9000400041ED1000001D0F000030B58DB082
S1130EA08023DB05009300230193FF2269460A8116
S1130EB08B72CB7296229201049201220A754A75B2
S1130EC08B75CB7506930B774B77C4239B030393E6
S1130ED001235B42089309930B4B0A930B4B0B932F
S1130EE00B4D0C4C6A460C492800A0470028F9D148
S1130EF0074B1A68138A1BB2002BFBDB1368022111
S1130F000B4313600DB030BD0300360003003700FF
S1130F104000002045050000001C0042F0B587B0E9
S1130F2002AC104B220023CB23C2198811809B787A
S1130F3093700D4B98470D4B98470F2221000C4896
S1130F400C4B98476B469C1D0B4E21000848B0473C
S1130F500028FAD1064D094F21882800B8470028F7
S1130F60FAD1F2E78C110000D50D00009D0E0000AF
S1130F7040000020BD070000710700004D0700007D
S1130F80002243088B4274D303098B425FD3030AC4
S1130F908B4244D3030B8B4228D3030C8B420DD3D7
S1130FA0FF22090212BA030C8B4202D31212090265
S1130FB065D0030B8B4219D300E0090AC30B8B42A3
S1130FC001D3CB03C01A5241830B8B4201D38B0351
S1130FD0C01A5241430B8B4201D34B03C01A5241F6
S1130FE0030B8B4201D30B03C01A5241C30A8B4239
S1130FF001D3CB02C01A5241830A8B4201D38B0224
S1131000C01A5241430A8B4201D34B02C01A5241C7
S1131010030A8B4201D30B02C01A5241CDD2C30939
S11310208B4201D3CB01C01A524183098B4201D3B5
S11310308B01C01A524143098B4201D34B01C01AA0
S1131040524103098B4201D30B01C01A5241C30818
S11310508B4201D3CB00C01A524183088B4201D387
S11310608B00C01A524143088B4201D34B00C01A73
S11310705241411A00D20146524110467047FFE7DF
S113108001B5002000F006F802BDC0460029F7D0E3
S113109076E770477047C046F0B5CE46474615041C
S11310A02D0C2E0080B50704140C3F0C9946030C3C
S11310B07E435D43674363437F19340CE4199C46C4
S11310C0A54203D980235B029846C4444B4651434E
S11310D043433604360C250C24046544A4195918DA
S11310E0491920000CBC90469946F0BD70B5002605
S11310F00C4D0D4C641BA410A64209D1002600F02F
S11311004DF80A4D0A4C641BA410A64205D170BDCB
S1131110B300EB5898470136EEE7B300EB58984715
S11311200136F2E7A8110000A8110000A811000080
S1131130AC11000000080042000C00420010004204
S11311400014004200180042001C00428A080000FB
S11311508608000086080000D6080000D6080000B3
S11311609E08000090080000A40800005C0900002C
S11311703C0900003C090000AC0900004E090000D5
S11311806A090000400900007809000048656C6C99
S11311906F20576F726C64210D0A0000F8B5C046C9
S11311A0F8BC08BC9E467047CD000000F8B5C046A8
S10F11B0F8BC08BC9E467047A500000077
S10711BC010000002A
S9030E05E9
